S00B00004C6162372E733337A3
S214000000C01A0020B59C0100F1360000F53600004D
S214000010A70B0000000000000000FFFF54000000D7
S21400002004180F00000000000000000000000000A0
S21400003000000000000000000000000000000000BB
S214000040000000000000000000000000A701000003
S20800005000000000A7
S214000054C01A0020B59C0100F1360000F5360000F9
S214000064A70A0A010002000004180FACA067A70143
S2140000740000000000000000000000000000000077
S2140000840000000000000000000000000000000067
S2140000940000000000000000FFFFFFFFFFFFFFFF5F
S2140000A4FFFFFFFF006007000000000000000000E4
S2140000B4FFFFFFFFFFFFFFFF8000000000000000BF
S2140000C40000000000000000000000000000000027
S2140000D40000000000000000644E0020644E002073
S2140000E4C01A00206C7F0300880003006011002003
S2100000F42C11002000E0070000000000B7
S214000200C01A0020B59C0100F1360000F53600004B
S214000210157C0000F936000001370000B39C010091
S214000220B39C0100B39C0100B39C0100B39C010089
S21400023005370000B39C0100B39C0100B39C01008D
S21400024078370000783700007837000078370000ED
S21400025078370000415300007160000078370000D6
S2140002607837000059260000455100009DB0000078
S21400027078370000783700007837000078370000BD
S214000280783700007837000078370000B39C01000C
S214000290783700009D490000783700007837000066
S2140002A0783700009D4A0000754A00007837000045
S2140002B07837000078370000783700008576010030
S2140002C0117601000D7601004D6D0100817601006A
S2140002D0157601003576010019760100B39C010001
S2140002E0C97601007837000078370000D939000059
S2140002F0783700007837000078370000B39C01009C
S214000300783700007837000078370000783700002C
S214000310783700007837000078370000783700001C
S214000320783700007837000078370000783700000C
S2080003307837000015
S214000334F8B500BFF8BC08BC9E467047F8B500BFC9
S214000344F8BC08BC9E46704710B5054C237833B9F4
S214000354044B13B1044800E000BF0123237010BD12
S2140003644423002000000000E076030008B5034B99
S2140003741BB10349034800E000BF08BD00000000AD
S21400038448230020E0760300154B002B08BF134BD0
S2140003949D46A3F5803A00218B460F461348144A1F
S2140003A4121A2FF04BFE0F4B002B00D098470E4B23
S2140003B4002B00D098470020002104000D000D48B3
S2140003C4002802D00C4800E000BF2FF0F9FD200002
S2140003D429000BF08BF82FF0DFFD00BF00000800AB
S2140003E4C01A002000000000000000004423002083
S2140003F4644E002000000000000000001FB501232A
S2140004040022009306210DF10F030DF03EFA20B9E9
S2140004149DF80F3023B103F0AFF905B05DF804FB87
S21400042403F0ABF9F9E7000030B50024144D85B0AD
S2140004342C700BF053FF022817D100900DF10E0319
S2140004442246032101200DF020FABDF80E0048B123
S214000454204603F093F94FF47A6128461EF0F6F925
S21400046405B030BD03F088F9FAE708F00BFE054B3B
S2140004740090054A054901200EF0EAFBF0E700BFAC
S214000484983F0020B0180300880003008D00030086
S21400049408B50BF023FF02280CD10022064B0120DE
S2140004A41A7007F06BF8BDE80840024603490120BD
S2140004B40EF0CEBB08BD00BF903F0020DB0003005B
S2140004C413B5044600900A4B0A4A0B4901200EF065
S2140004D4BFFB5CB12246094901200EF0B9FB00942B
S2140004E4074B084A044901200EF0B2FB02B010BDC7
S2140004F4A1000300880003008D000300AA00030087
S214000504B0180300D6000300FFF778BF09B9FFF759
S21400051475BF704738B5C37B05460BB1832038BD1D
S214000524C47C2CB902F072F920B9EB7B002BF5D110
S2140005348120F4E72046F2E7C37B10B504460BB1EE
S214000544832010BDC37C1BB1012B10D08120F8E79B
S214000554017D82898B1C9A420CD380680DF0C7FEFD
S21400056407F0D0FB40B9E37B002BE9D1EEE707F0B8
S214000574E1FBF7E78020E4E70020E2E7F8B5C37B79
S21400058404460BB18320F8BDC37C052B29D8DFE8CD
S21400059403F0032A35414C4F057D8289AB1C9A42F1
S2140005A401D28020EFE7ADB2294680680DF09FFEA9
S2140005B40646A06802352844A7890DF0B1FE2844F3
S2140005C401308742EDD32946A289A0680DF096FE35
S2140005D40146304607F092F8002848D1E37B002B0A
S2140005E4D0D18120CFE7017D82898B1C9A42D8D353
S2140005F480680DF07CFE07F0A1F8EDE7037D8189A5
S2140006045A1C9142CDD38268591C1144D05C07F021
S214000614C5F8E1E7017D82898B1C9A42C1D38068C4
S2140006240DF065FE07F03CF9D6E707F095F9D3E739
S214000634057D8289AB1C9A42B3D3ADB22946806845
S2140006440DF055FE0646A06802352844A7890DF02D
S21400065467FE284401308742A3D32946A289A068AE
S2140006640DF04CFE0146304607F0BEF9B4E7002014
S21400067489E7C37B2DE9F7430446002B40F0BA8094
S214000684C37C062B00F2B880DFE803F0044A5A6AFB
S2140006947585A800057D8289AB1C9A4203D280200A
S2140006A403B0BDE8F083ADB2294680680DF01FFEA6
S2140006B4A289E91C8A42064605F10203EFD3881C88
S2140006C48242ECD3A0680535C75C0DF010FE804668
S2140006D4A068B4F80C9028440DF022FE284401309B
S2140006E48145DCD32946A289A0680DF007FE814621
S2140006F4A06828440DF014FE01300544A0684B465B
S21400070410FA85F500954246394630460AF09EF9B9
S214000714002873D1E37B002B14BF83208120BFE71E
S214000724057D8289EB1C9A42B9D3ADB2294680680E
S2140007340DF0DDFDA3680235595D0AF007FAE7E718
S214000744057D8289EB1C9A42A9D3ADB229468068FE
S2140007540DF0CDFDA3680235595D09F0F5FDD7E728
S214000764017D82898B1C9A4299D380680DF0BFFD67
S21400077409F058FECCE7057D8289EB1C9A428ED39D
S214000784ADB2294680680DF0B2FDA3680235595D06
S21400079409F0AEFFBCE7057D8289AB1C9A42FFF4E4
S2140007A47EAFADB2294680680DF0A1FDA289E91C92
S2140007B48A42064605F10203FFF471AFA068C75CDF
S2140007C48B1C9A4207D30DF092FD024639463046FA
S2140007D409F0F6FF9CE74FF6FF72F7E7017D828982
S2140007E48B1C9A42FFF45BAF80680DF080FD09F025
S2140007F481FE8DE7832053E7812051E700204FE7F1
S214000804C37B10B504460BB1832010BDC37C012BFB
S2140008140BD003D3022B0BD08120F6E708F0F0FDB3
S21400082448B9E37B002BEFD1F6E708F0F9FDF7E7CC
S21400083408F006FEF4E70020E7E7C37BF7B50446B6
S214000844002B40F0D280C37C072B00F2D080DFE878
S21400085413F008003800590086009B00AA00B60072
S214000864C900037D8289591C8A42C0F0C2809DB2A9
S214000874691C881C8242C0F0BC80A068C75C0DF06E
S21400088436FDEB1CA6895A1C964228BFA268014670
S21400089424BFD25C2B1D03F1010038BFFF22864221
S2140008A42ABFA068FF23C35C384607F02DFF002844
S2140008B440F0A180E37B002B14BF8320812003B08B
S2140008C4F0BD067D8589731C9D42C0F09280B7B248
S2140008D4BA1C954207F10103C0F08B808068C15CA6
S2140008E413460132954224BFC25CFB1C03F1010788
S2140008F438BFFF22BD422CBFC35CFF23805D07F0D8
S21400090417FFD4E7037D8289591C8A4271D39DB2AE
S214000914A91C8A4205F101076BD3881C824268D35E
S214000924A068C65CC75D0DF0E2FC291DB4F80CC0D7
S2140009344B1C9C4528BFA368024624BF5B5C691D0C
S21400094401F1010038BFFF23844532BFFF21A068B0
S214000954415C30460091394607F0FAFEA7E7027D6F
S2140009648189501C814293B222BFA0680133805C07
S21400097403F1010238BFFF2091422ABFA268FF217B
S214000984D15C07F0F7FE92E7017D8289CB1C9A4280
S2140009942FD38068455C01310DF0A9FC014628463A
S2140009A407F0BCFE83E7037D81899A1C914220D31D
S2140009B48268591C515CD05C07F0C2FE77E7037D61
S2140009C48289191D8A4214D3806899B2C55C4B1C6F
S2140009D40231C65C0DF08BFC31460246284607F011
S2140009E4C0FE64E707F0CBFE61E7832067E781205B
S2140009F465E7802063E7002061E738B5C37B0446DB
S214000A04002B437D14BF8325C325012B11D1036816
S214000A14028A598858790CF0BBF950B123685B8870
S214000A24032B02D1E37B13B18325284638BD8125E9
S214000A34FBE7637D002BF8D12368228A598858790E
S214000A440CF09DF90028F0D023685B88052B20D095
S214000A5409D8032B13D017D8002BE6D12046BDE8BF
S214000A643840FFF757BD082B18D0B3F5A06FD9D080
S214000A74062BDAD12046BDE83840FFF7C1BE204633
S214000A84BDE83840FFF758BD2046BDE83840FFF7BC
S214000A9475BD2046BDE83840FFF7EBBD2046BDE8EF
S214000AA43840FFF7CABE70470120704701207047E0
S214000AB401207047704700207047002070470020D0
S214000AC470470020704700207047002070470120C0
S214000AD4704701207047B5207047002070470020FB
S214000AE4704700207047002070477047002070470A
S214000AF40020704770470020704784207047704776
S214000B0470477047704700207047704770477047BB
S214000B14002070477047002070470000034B1B6896
S214000B241878012808BF0220704700BF003800204C
S214000B340020704703460120024AC3E9032000222E
S214000B441A7070470100FEFF7047002070470020AF
S214000B547047002070470020704700207047002030
S214000B6470477047B52070470020704700207047D4
S214000B7470470020704770477047B520704770472D
S214000B847047704700207047704770470023FF2166
S214000B94084A137082F8783082F8653082F8773025
S214000BA482F8793082F87A1082F87B30024A136031
S214000BB4704700BF60230020A03F0020F8B50D4614
S214000BC48C680A6806462849202003F072FC6B6885
S214000BD47BB92649202003F06CFC20200AF042F85A
S214000BE42349202003F07AFCBDE8F84020200AF0D0
S214000BF439B8002EF1D01F4D1F4E204F013C14F87B
S214000C04013F23B91A49202003F068FCE5E7752B59
S214000C1418D0762B18D0772B18D0732B18D0722BAD
S214000C2418D0712B18D0622B18D06E2B18D02A2B04
S214000C3418D01349134A212B18BF1146202003F05D
S214000C4438FCDCE72946F9E73146F7E73946F5E7A5
S214000C540D49F3E70D49F1E70D49EFE70D49EDE7D7
S214000C640D49EBE70D49E9E7314D03008F01030019
S214000C74400103004D010300410103005801030035
S214000C849901030096010300640103006E0103004A
S214000C9479010300840103008E010300930103001D
S214000CA4F0B50026204A92F87B30184452FA80F0B9
S214000CB490F865C090F8665030461C4BA5EB0C05C2
S214000CC41F78EDB2F4B2A54225D90CEB0603134403
S214000CD45B7811B10CB92D2B17D0782B1FD0582B5D
S214000CE405D108B137240AE0013C012C14D9602B45
S214000CF417D8402BF6D83A2B34BF302400241B1BBD
S214000D04DBB29F4203D900FB07300136DAE705233E
S214000D14002082F87930F0BD10270020F5E700287F
S214000D24E2D05724EBE700BF60230020581C0020C5
S214000D34FFF72CBF034B93F8770093F87B30C01A69
S214000D44C0B27047602300200021FFF7A9BF00004F
S214000D5410B50A4B93F87B20024453FA82F292F8B9
S214000D64652013445C78A4F12D0359425941FFF7DA
S214000D7497FF2D2C08BF404210BD00BF6023002003
S214000D8430B50C4A92F87B300344C043DBB2C00F44
S214000D9439B1D51895F8664095F86550641B241A41
S214000DA40C7042FA83F393F865301844024B1844E7
S214000DB430BD00BF6023002061230020F7B5154630
S214000DC40E460DF107011C46FFF7DAFF9DF80730C3
S214000DD40746AB4288BF8DF807501CB19DF8074004
S214000DE42C1BE4B222463046002100F079FB301971
S214000DF49DF80720394600F017FB9DF8070003B05E
S214000E04F0BD38B50C4601230822FFF7D7FF04F1DE
S214000E140803621E043413F8011D12F8015FA3428E
S214000E241D701170F7D138BD38B50546014601204E
S214000E34FFF7C4FED5E901436CB91C46084D236888
S214000E4463B12946202003F034FB21460020FFF737
S214000E54B5FE0C34F3E71B786E2BEFD038BD00BF1D
S214000E64514F030008B50449202003F022FBBDE8D7
S214000E740840202009F0F6BE0101030038B5FFF74C
S214000E84F1FF0024054D61190C34631953F80C3C2A
S214000E9403B938BD0020FFF791FEF4E7080F0300FE
S214000EA42DE9F84F1F4B204D53F820201F492020D2
S214000EB403F0FFFA2B681BB9BDE8F84FFFF7DEBF57
S214000EC41B4FFFF7CFFF0026B946DFF86CA097F854
S214000ED47B30F4B2013B9C4204DB2868BDE8F84F43
S214000EE4FFF7A2BF47FA86F393F8658000234C44C5
S214000EF4C84494F8662094F8651003F1010B521A5E
S214000F04DBB2D2B2934205D30A49202003F0D1FAC9
S214000F140136DCE743445A785146202003F0C9FAE8
S214000F245B46E6E75C1C0020A03F0020FC000300B4
S214000F3460230020524F0300A05103002DE9F74F11
S214000F44884C94F87730002B00F0A180864B671C01
S214000F541B7813F0010F1FD00025844E14E063198C
S214000F6493F8662093F865302020D21A44FA85F365
S214000F7493F86510D2B2394409F06FFE314620204A
S214000F8403F097FA0135EDB294F87730AB42E6D821
S214000F947749202003F08DFA002694F87730DFF89E
S214000FA4DCE10193734B4FF00008714645461EF88A
S214000FB4012B91F801C007EB020AACEB020C5FFAB6
S214000FC48CFC1868002852D00138D14619E02AB99A
S214000FD4002D4AD04FF001080C33F2E719F8011B34
S214000FE4A1F1410BBBF1190F98BF2031A2F1410BBF
S214000FF498BFC9B2BBF1190F9CBF2032D2B28A4245
S214001004EAD1A9EB0A01614510F8012FDFD1002AC5
S214001014DED11D46584B01361D6094F87B30F6B27F
S214001024013384F87B30D5E90123002A35D01B78B8
S2140010346E2B31D03F2B23D04FF000094FF0070B17
S214001044C846042394F87710AA68B14212F80870C8
S2140010542BD8AFB1904498F801302A2B10D0212F0A
S2140010641CBF032384F879300AE01D46B4E7B8F1C0
S214001074000F01D1002DCDD10223002584F879304C
S21400108494F87900002869D168680CF01FFE03B054
S214001094BDE8F04FFFF77ABD1346019AB24282D8F4
S2140010A403221D4684F87920EAE7732F09D8712FA6
S2140010B40BD2212F1FD0622F3CD0002F4BD10322FE
S2140010C446E0A7F17502022A45D8752F29D0762F57
S2140010D42AD0732F2BD0722F47F6FF7A18BF4FF003
S2140010E4FF3A012148460193FFF7DAFD5045019B7C
S2140010F401D984F87930AA68424452782A2A94F8A6
S21400110479201CBF08F101085FFA88F8002AB7D1D5
S214001114212F1FBF013609F10109F6B25FFA89F9DA
S21400112490E74FF0FF0ADCE74FF6FF7AD9E74FF077
S2140011347F0AD6E794F87B204A4454FA82F292F85F
S214001144652022445278222AD5D07B2AD3D0052281
S21400115484F87920CFE784F879B0CCE7FFF7A0FECF
S21400116495E700BF60230020DC230020524F0300D5
S2140011743E010300080F0300A03F0020C523002003
S2140011842DE9F34106460D464FF000085C4C5D4FD2
S21400119466B90DF10701284609F05AFD78B12628EC
S2140011A400F0A980012384F879304BE0002D00F08C
S2140011B4A28016F8013B013D8DF80730EDB23A786F
S2140011C49DF807300D2A3B7001D10A2BE0D00D2B79
S2140011D40CD0A3F10A025142514122788846042ACF
S2140011E4D6D8DFE802F0051D263C31000121F4E7DD
S2140011F421B1FFF7A3FE4FF00108C9E7202B63D007
S214001204222B07D10223237094F87820642A5DD118
S2140012140623C8E77B2B01D10323F4E70123F2E777
S21400122409B9202BF0D194F87730112B3FD1032342
S214001234B9E7222BF7D00029E6D005234FF00108A2
S21400124484F8793004232370B8F1000FA0D094F802
S214001254790008B1FFF724FEFFF798FC98E77D2B8A
S21400126494F87A0003D1FF28DDD005239BE7602B92
S21400127413D8402B13D8392B8CBF002230229A1A4D
S214001284D2B20F2A10D8FF280BD0FF2302EB00128D
S2140012948DF8072084F87A30B6E75722EFE737222E
S2140012A4EDE784F87A2073E7202BDED170E701336C
S2140012B4DBB294F8782084F87730234483F86520EA
S2140012C400232370002994D1884661E72378012BF4
S2140012D409D19DF80730A3F1410119299CBF203399
S2140012E4DBB28DF807309DF80710A3180132597049
S2140012F484F878204CE7404602B0BDE8F08100BF91
S21400130460230020DD23002049BA89B24840C0F398
S21400131403114140080380B24840C3B280EA431038
S214001324704719F097BC704770477047704770470E
S21400133470477047704770477047704770477047EC
S214001344704700207047704770470020704770470A
S21400135470470020704770477047704700207047FA
S21400136470470120704701207047704770477047E8
S21400137470477047704770472DE9F0470024204DAA
S214001384DFF89C90DFF89CA05FFA84F840461DF0D6
S2140013941BF8FF2806460CD122461A49287803F083
S2140013A49DF82878013409F05DFC142CECD1BDE8D6
S2140013B4F087154B47B213EA270338BF534659F84C
S2140013C424201249287803F089F8002FE9DA14B1AA
S2140013D4B8F1030F08D10E4B16F0010F0D4928780B
S2140013E418BF194603F07AF80A2CDAD10A4B16F01D
S2140013F4010F0A49287818BF194603F06FF8D0E79A
S21400140441200020B502030040010300DD02030072
S214001414780203008E020300A0020300AA0203005F
S21400142424020300A44D03008842F0B54FEA920359
S2140014341AD804460D469BB29E0087190437043416
S214001444BC4205F104053AD1C3EB8333314402EBC5
S2140014548303013E304411FA83F3994220D011F8F5
S214001464012B00F8012FF8E7541E204421440D46B2
S21400147404469BB2A0EB8306043E043CB442A5F1AA
S21400148404050ED16FF003045C43C3EB833302EB15
S214001494830321449BB201342044CB1A994209D1D8
S2140014A4F0BD2F792771EF78E770AF78A7706F7863
S2140014B46770E2E711F8012900F8012DEEE715F848
S2140014C404CC04F804CC15F803CC04F803CC15F8C3
S2140014D402CC04F802CC15F801CC04F801CCAEE733
S2140014E40244904200D1704700F8011BF9E710B59A
S2140014F4013801390AB9104606E010F8014F11F810
S214001504013F9C4201D0E01A10BD013A92B2F1E7C5
S21400151482B2074B4AB1000C1A8008BF4FF6CE229F
S214001524044B14BF18801A8070474BF6EF62F2E73C
S2140015342C1D00202E1D0020094B1888020448BFCD
S21400154480F0620042001A80064A1388190444BFD9
S21400155483F4805383F00B0359001180584070477E
S2140015642C1D00202E1D00200022034B1870034B58
S2140015741970034B1A707047E7230020E6230020F7
S214001584E82300202DE9F04F234E85B03378074634
S2140015948846002B3DD04FF6FB73204D98422C789E
S2140015A403D952211E4801F041FD1E4B4FF0000B9B
S2140015B49A4632785FFA8BF94A45187811D9484426
S2140015C402A9C0B2019325F0EFFC082241460DEBB8
S2140015D40200FFF78CFF0BF1010B019B0028E8D1FA
S2140015E44C462B78A34207D1631C3278DBB29A426E
S2140015F42B7004BF00232B709AF8003041461C441D
S214001604E4B2204625F0F8FD18B93946204625F000
S21400161499FC05B0BDE8F08FE6230020E8230020FF
S214001624D2030300E7230020024B187800F07F0063
S214001634704700BFE9230020034B18780130C0B27E
S214001644187000F07F007047E92300201FB5030AD6
S2140016548DF80E300323009303AB8DF80D0000F0D5
S214001664BFF905B05DF804FB1FB58DF80F10042113
S214001674030A8DF80E30009103AB8DF80D0000F0D0
S214001684AFF905B05DF804FB2DE9F043994689B03F
S214001694BDF840509DF84460074688460DF10900A1
S2140016A411460822BDF84C40FFF7BEFE8DF81250D6
S2140016B4012E4FEA15258DF811908DF813508DF8EC
S2140016C4146017D0032E1CD1082212990DF11500B0
S2140016D4FFF7AAFE9DF850308DF81D3016230093B0
S2140016E4BDF8542002AB4146384600F079F909B0FB
S2140016F4BDE8F0838DF81540240A8DF816400F23B4
S214001704EDE70120F3E71FB50C46194602238DF8D2
S2140017140D2000930A4603AB0146204600F060F90C
S21400172404B010BD70B586B0044616460DF10D0023
S21400173408221D46FFF778FE0A232A460093342122
S21400174403AB20468DF8156000F04AF906B070BD6C
S21400175430B5002485B0ADF80A20021D92B2012AE5
S2140017641D46ADF80840ADF80610ADF8044003D9A0
S2140017744FF6FF72904207D1064A2B46127801A90B
S21400178423F054FD05B030BD014601AA204623F0DF
S21400179413FEF7E7301D00202DE9F74F9846FF2A81
S2140017A416BF474B00241B680E4618BF9C5C814638
S2140017B418BF6408B8F1FF0F16BF414B00271B681B
S2140017C415461CBF13F808707F08FFF735FF4FEA6D
S2140017D419238DF800008DF803600621360A684642
S2140017E48DF804608DF801908DF802308DF8054070
S2140017F41DF0A2FBFF28064604D11824204603B099
S214001804BDE8F08F4FEA440B0BF1070A0AEB4701D9
S214001814C9B21DF045FB0028EFD10446A3451BD1F1
S2140018240BF106013A4601F0FE0130465FFA8AF4EF
S2140018341DF0FDFB4FF0000A5FFA8AF5AF4223D88D
S2140018443346BDF8302006214846FFF781FF04469C
S21400185430461DF013FAD1E7214628461DF0E2FB78
S214001864A11D0246C9B230461DF0E1FB611CC9B297
S21400187428461DF0D7FBE11D0246C9B230460234A5
S2140018841DF0D5FBE4B2C9E76D00EDB2294640462B
S2140018941DF0C8FB2146024630461DF0C8FB691CF5
S2140018A4C9B240461DF0BEFB611C0246C9B23046B2
S2140018B402341DF0BCFB0AF1010AE4B2BCE700BF27
S2140018C4C81C00202DE9F04188B00F4602A9064640
S2140018D40AF0D0FD00287CD0FFF7AEFE8DF810008D
S2140018E41CF046FF8DF811001CF042FF000A8DF82C
S2140018F41200082239490DF11300FFF795FDBDF8D3
S21400190408300F218DF81C301B0A8DF81D309DF809
S2140019140D3004A88DF81B608DF81E301DF00CFBEE
S214001924FF28044657D04FF000089DF80D305FFAA4
S21400193488F2934208F101081DD801220DF10E0128
S21400194420461DF03BFB4FF000089DF80E305FFA72
S21400195488F2934208F1010824D823463A46202107
S2140019640020FFF7F5FE054620461DF087F92846B9
S21400197408B0BDE8F081002130460AF0A7FD054610
S2140019848DF807000DF10701012220461DF016FB15
S2140019942D0A01220DF1070120468DF807501DF08F
S2140019A40DFBC2E7012130460AF090FD05468DF88E
S2140019B407000DF10701012220461DF0FFFA2D0A4B
S2140019C401220DF1070120468DF807501DF0F6FAA6
S2140019D4BBE7A325CBE71825C9E700BF094D0020C0
S2140019E4F8B51C460E4617460546FFF725FE9DF835
S2140019F41810207020461DF09FFAFF2804460BD0CE
S214001A0403463A4628463146FFF7A2FE05462046D8
S214001A141DF034F92846F8BD1825FBE708B500F094
S214001A2447F9BDE808400EF0A1B908B5FFF762F81B
S214001A340EF0C6F9BDE8084006F0EEB8704700F0B0
S214001A44BBBAFFF788B80020704738B504460D4681
S214001A54FFF79AF829462046BDE8384009F082BDCB
S214001A64FFF77BB8FFF785B84022032101200EF06C
S214001A7455BE0122032110460EF050BE002203215B
S214001A8401200EF04BBE0222032101200EF046BEBA
S214001A9400224FF4A06109200EF040BE01224FF44C
S214001AA4A06109200EF03ABE0122002109200EF0A2
S214001AB435BE000013B50446264901200DF0C8F8CB
S214001AC4042C44D8DFE804F0030D1C1E2E00224923
S214001AD401200DF0BDF80123204A1370204A13702C
S214001AE406E000221E4B1F4901201A700DF0B0F8C4
S214001AF44FF47A711C4802B0BDE810401CF0A6BE34
S214001B041A49E5E71A4901200DF0A2F84FF4967336
S214001B14032200930521002000F06EFC0222104BE5
S214001B241A70E5E70D4B1B788BB1124901200DF0B6
S214001B348FF84FF49673032200930521002000F0DB
S214001B445BFC0322064B40F6B8311A70D2E702B0AB
S214001B5410BD00BF9B190300B0190300EA23002040
S214001B64DC3F0020C3190300D43F0020D51903002E
S214001B74EA190300FE1903000B39042910D8DFE81C
S214001B8401F00307090B0D00064901200DF060B8AB
S214001B940549FAE70549F8E70549F6E70549F4E78C
S214001BA4704700BF321903003B19030044190300B1
S214001BB44D1903005619030037B5054698B1012898
S214001BC40FD1134B1A782AB10022014602201A704C
S214001BD400F079FA9623012200930521002000F0F4
S214001BE40BFC03B030BD0124094B22461C7096231F
S214001BF42146009300F000FC204606490DF028F824
S214001C042946022003B0BDE8304000F05CBA00BFAD
S214001C14311D00208E190300022937B505460C46EF
S214001C2417D0052928D0012937D1B0BB20461C4936
S214001C340DF00EF820461B490DF00AF82046022146
S214001C4400F05EFB2146204603B0BDE8304000F0BD
S214001C5419BA10BB124901200CF0FAFF12490120F0
S214001C640CF0F6FF2946012000F00CFA012003B020
S214001C74BDE8304000F06EBB78B90C4901200CF08A
S214001C84E7FFC823022200930321012000F0B4FBDF
S214001C9403B0BDE830401FF057BE03B030BD00BFF0
S214001CA45F190300691903007519030082190300FC
S214001CB4002208B50D4B0E4901201A700CF0C8FF1F
S214001CC400F06CFB0B4800F059F80B481CF0B2FD12
S214001CD40A490B4800F06AFA0A4B1B7823B1BDE8A0
S214001CE40840094800F0DCBC08BD00BFDC3F00200B
S214001CF4121A0300B91A0000D43F00201D1C00006D
S214001D047D1B0000EA230020BD1B0000002273B5E3
S214001D14174C184B25781A70012D264613D003D37A
S214001D24032D21D002B070BD0AF0D8FA40B94FF4A2
S214001D34967303220093012100F05EFB00F024F862
S214001D4402233370EEE74FF49673032200930221C6
S214001D54284600F051FB084B1D700223237002B086
S214001D64BDE8704000F060B902232370DAE700BFD4
S214001D74DC3F0020D43F0020EA230020014B1860FB
S214001D84704700BFEC23002008B50AF0A7FA30B964
S214001D94BDE808404FF4FA6101481CF057BD08BD81
S214001DA4E03F0020002310B5094C23700AF096FA91
S214001DB460B907F067F9074A2046BDE81040136883
S214001DC44FF4FA61013313601CF040BD10BD00BF30
S214001DD4E03F0020F023002010B504461B490120F4
S214001DE40CF036FF22461A4901200CF031FF902CE5
S214001DF415D1184B184C186858B107F083F92368A6
S214001E042BB102209847154901200CF021FF002031
S214001E1410BD2368002BFAD098471149F4E70AF05E
S214001E245DFA044638B90C4B1B68002BEFD004202F
S214001E3498470C49E8E70328E9D10B4901200CF040
S214001E4407FF054B20461B689847E0E71C1A03006B
S214001E541C520300F0230020EC230020381A030051
S214001E644D1A0300601A0300741A03004368588866
S214001E7448F20503C31A584258417047F8B5036838
S214001E84C47C0546077D5A881D4901205E790CF0FE
S214001E94DFFE8CBBAA89791C8A422FD3A868C55D4D
S214001EA40CF025FA2A460346164901200CF0D0FE0B
S214001EB4012E09D14F2D09D9134930460CF0C8FE1E
S214001EC40221204600F01CFA2046F8BD272D05D92D
S214001ED40E4930460CF0BCFE3146F2E72DB10C49F3
S214001EE430460CF0B5FE0421EBE7304609490CF009
S214001EF4AFFE284600F02EFA0024E5E70124E3E7C7
S214001F04881A0300991A0300D51A0300DF1A03007F
S214001F14E71A0300F01A030070B50368C47C5E7900
S214001F240546234632461F4901200CF091FE1CB19B
S214001F34012C20D0002070BD1B4901200CF088FE27
S214001F442D7965B1022DF5D1184901200CF080FEDB
S214001F54204600F0FFF9012000F0FCF9EAE71449F6
S214001F6401200CF075FE284600F0F4F929463046A8
S214001F7400F088F8DEE70F4920460CF069FE2D795C
S214001F8455B1022DD6D1204608490CF061FE2946EB
S214001F94204600F0B5F9CDE72146284600F0B0F912
S214001FA42146E4E7F91A0300391B03004E1B03001D
S214001FB4461B0300581B0300827B08B52AB103683E
S214001FC45B88062B03D0082B04D0002008BDFFF73F
S214001FD4A3FFFAE7FFF752FFF7E7000070B51646CF
S214001FE40022054688B09DF830408DF80E209DF8F6
S214001FF434208DF80C10090A8DF80D108DF80F207A
S2140020041946224604A82EF00EF8043403AB0093B7
S2140020140194044B3246294610200BF0E1FD08B02B
S21400202470BD00BFA817030070B586B002AC264684
S214002034134A02F10803254610685168083203C59E
S2140020449A422C46F7D1106893882860AB800AF031
S21400205445F9022811D10D2342220521CDE900328B
S214002064002033460122FFF7B9FF012108460BF092
S21400207425FE002108460BF017FE06B070BD00BF13
S214002084641B0300F0B501251027064685B004AC92
S21400209404F8011D23462A46CDE9005700210620F0
S2140020A4FFF79CFF294630460BF008FE0021084641
S2140020B40BF0FAFD009723460022062130460BF06B
S2140020C493FB05B0F0BDF0B501241027064685B095
S2140020D404AD05F8011D2B462246CDE90047022132
S2140020E44FF4A060FFF77AFF214630460BF0E6FD7A
S2140020F4002108460BF0D8FD00972B4622464FF4E5
S214002104A06130460BF070FB05B0F0BDF8B5234C6B
S214002114636883422FD0636998422ED10125EDB2BD
S2140021242D0163195F683023625D1D485343002206
S214002134164618440368FB4003F001030168F9409F
S21400214401F0010C63451AD10132052AF6D1621951
S21400215482F808C0B3B9537A01335372137B13B9A8
S21400216410481CF067FB002301222C44A3726373FF
S2140021742273E372F8BD0025D1E7FF25D0E70022DD
S2140021846346DBE701230848D372067016734FF4E0
S214002194FA71BDE8F8401CF059BB00BF341D00209E
S2140021A414C00340E83F0020F03F00202DE9F74329
S2140021B407460E46012502F03FFC104CDFF8489017
S2140021C404F12008002301226168207804F0B6FC9C
S2140021D44946207902F03EFC626814F8100BCDE9FB
S2140021E400550123114604F063FC4445EAD1044B30
S2140021F41F60044B1E6003B0BDE8F083341D00204E
S214002204F4230020F8230020112100002DE9F843D0
S21400221400241A4B4FF005081C704FF001092346A2
S214002224174D184FEE7826B36B780133DBB2042BC8
S21400223484BF00222A703A686B7088BF85F80490C1
S2140022445AB1B3FBF8F101EB81001B1A13F0FF0F30
S21400225403D10A31C9B220469047103534B156B17D
S214002264BDE8F843C82105481CF0F0BA01243346FB
S214002274D8E71E46F1E7BDE8F88300BFE83F002034
S2140022843D1D0020F42300202DE9F0410025A8463A
S214002294174B184C184E194F1D70E37AABB13368C0
S2140022A43BB1627BE8B2B2B9617A0A2928BF112130
S2140022B4984784F80A8084F8098084F80C8084F8A7
S2140022C40B8084F8088084F80D8010340DB1BDE8C6
S2140022D4F0810125E1E7A17A3B681D299FBF05220D
S2140022E4B1FBF2F10A31C9B288BF1121E0E700BFA1
S2140022F4F03F0020341D0020F8230020F4230020A3
S2140023041822124B2DE9F04102FB0030012700236E
S214002314302641F2100C42F2100E0D4D10F8332008
S21400232400EBC30406FB0252646841FA03F818F093
S214002334010F07FA04F403F1010314BF42F80E4038
S21400234442F80C40032BE9D1BDE8F081541D00206F
S21400235400C003401823584301230E4970B53025A6
S2140023640A18085C51680C4C03FA01F641F2100195
S21400237405FB00404650107AD66805FB004003FA79
S21400238406F64650107C5269934005FB00425350B3
S21400239470BD00BF541D002000C0034070B5124D30
S2140023A400242E462919285D00230422496808348F
S2140023B404F0C4FB182CF5D100243019C16900239D
S2140023C40422007E083404F0B9FB182CF5D1074B20
S2140023D4074A00201A60074A5A60FFF7BBFFBDE8A9
S2140023E470400120FFF7B6BF541D0020184000209F
S2140023F410400020F83F002030B40025084C52005E
S21400240404F8305004EBC0046380029B6170A38020
S214002414044BA27153F82000057030BC1CF00ABAB5
S21400242400400020184000202DE9F84F3F4BC5001F
S2140024345E19B2791C463E49002A57D012F0010FA5
S2140024444FF0180330D000224FF001084FF0300C44
S21400245441F2100942F2100A03FB001396F801E059
S214002464344F13F8321003EBC2060CFB0171766886
S2140024744EFA02FB1BF0010F08FA06F602F10102FF
S21400248414BF41F80A6041F80960032AE9D16319C8
S2140024945988294B2C4453F8200009F045F9A379B0
S2140024A4013BA371BDE8F88F4343CA18CF5C0123F0
S2140024B44FF0300E5168DFF87CC003FA01F841F2A1
S2140024C410010EFB07C747F8018092F80880D7680A
S2140024D40EFB08C803FA07F748F80170177C526920
S2140024E493400EFB07C25350B188D2E7022203F88A
S2140024F4302018220123504330250A18085C5168FE
S2140025040C4C03FA01F641F2100105FB004046505C
S214002514107AD66805FB004003FA06F64650107C8F
S2140025245269934005FB00425350BBE7004000202D
S214002534541D002000C00340184000200020024B19
S2140025441B681870FFF770BF184000200022034B6A
S21400255401205B681A70FFF767BF00BF18400020B1
S21400256470B541F2300201250A4C0646236BA5508D
S2140025740022DB07626205D4204604F02BFD42F2FB
S2140025843003E550044B1868236B01237043E06165
S214002594E36070BD00400540204000202DE9F04770
S2140025A4294CC500621996782849182356B303FBAC
S2140025B400104FF0010E0023302741F2100842F2BB
S2140025C4100992F801C0224E10F8332000EBC30124
S2140025D407FB026249684CFA03FA1AF0010F0EFA76
S2140025E401F103F1010314BF42F8091042F8081080
S2140025F4032BE9D100226319D8789A70BDE8F04716
S214002604FFF7AEBF58430B180C5C012130275868FF
S2140026140F4E01FA00F541F2100007FB0464255042
S2140026241C7ADD6807FB046401FA05F525501C7C5A
S2140026345D6907FB046301FA05F51D50D0789170B7
S214002644C0F16400DAE700BF00400020541D0020FB
S21400265400C00340022210B5084CE260084A117814
S214002664012909D0107A012801D1FFF797FF42F219
S21400267414030122E25010BD0020F6E70040054096
S2140026840040002007B501230022CDE900230422E0
S2140026940220114604F00CFA03B05DF804FB0000B7
S2140026A410B5044602F0C8F90023012204210220D2
S2140026B404F044FA0449042002F0CCF9FFF7E2FFE0
S2140026C4024B1C6010BD00BF05270000FC23002041
S2140026D407B5034620B103B05DF804EBFFF7D2BF9D
S2140026E40422CDE900001146022004F0E1F903B00B
S2140026F45DF804FB014B1878704700BF00240020E7
S21400270410B50E49044601200CF0A2FA01220C4B27
S214002714042C1A7010D1FFF7EDFF68B10222094BA2
S21400272400201A70FFF7D4FF00230748C82103705F
S214002734BDE810401CF08AB810BD00BF721B030031
S21400274400240020244000202840002070B50024E7
S2140027541C4D1D4E2B783470032B1CD0042B24D018
S214002764022B2ED1FFF7C6FF88B1184901200CF0C2
S2140027746FFA03232B70164B1B680BB10120984786
S21400278441F288311048BDE870401CF05FB8BDE8DF
S2140027947040FFF777BF0F4B1C7004232B70FFF7B6
S2140027A471FF47F230513046EDE7094D2B6843B1CF
S2140027B4012009490CF04CFA2B682046BDE870400D
S2140027C4184770BD2440002028400020861B0300C4
S2140027D4FC23002000240020981B0300002307B5D8
S2140027E4CDE90033012369464FF0FF308DF80230FF
S2140027F40FF0A6FE003018BF012003B05DF804FBFE
S21400280401207047012070470120704710B5084C1E
S21400281423681B6858790AF0D6FC23681B68587925
S214002824FEF76EF900200DF05FFC012010BD00BF1E
S2140028346C4B00202DE9F84F80460D461446994609
S214002844164E06F1010A0DB9BDE8F88F102D4FF0AB
S2140028540D02494650462F4628BF1027FEF7E4FDD2
S2140028640123337000230D48F473B37324F05CFD26
S214002874424601340A495FFA87FBE4B212F8013B88
S21400288411F8010F434002F8013CA2EB0803DBB247
S2140028945B45F3D3ED1BADB29046D4E70524002088
S2140028A4042400202DE9F04F4FF00209364D85B080
S2140028B403930F9B174601900D220E460146681C93
S2140028C4BDF838800293FEF7AFFD49234C46AA466E
S2140028D42B7028464FEA1823AB7385F80F8024F034
S2140028E423FD2B7883EA17232B706B787B406B7061
S2140028F44FF0000B21E0C4F1100CA7EB0B031FFAFA
S2140029048CFC9BB2634528BF63463046A11B00EB94
S214002914010C5FFA8CF2A0EB060C1FFA8CFC9C45AB
S2140029241BD31C44E4B29B44102C1E441FFA8BFB9E
S21400293403D1284624F0F8FC0024BB45DBD314B1AD
S214002944504624F0F1FCB9F1010F4FF00004039E49
S21400295447460BD04FF00109CAE710F801CB1AF826
S21400296402E08CEA0E0C0AF802C0D0E702980422B1
S2140029740549FEF759FD22460421019B029805B03D
S214002984BDE8F04FFFF756BF05240020F7B5099FB2
S214002994BDF820400646CDE900471D46FFF782FFF6
S2140029A42CB13346012221462846FFF743FF002078
S2140029B403B0F0BD2DE9F7431E460546884691460A
S2140029C4BDF828700D4C0346394630460122FFF701
S2140029D431FF33464A4641462846CDE90074FFF7A0
S2140029E461FF042221460B98FEF781FD002814BFE0
S2140029F47E20002003B0BDE8F08300BF0124002041
S214002A042DE9F3410C4615461E468046084F991894
S214002A14214438460422FEF707FDCDE90067631912
S214002A242A4621464046FFF7C5FF02B0BDE8F081BE
S214002A341524002000207047002070477047704718
S214002A44F7B50024094E0A4F0A4D56F8243003B948
S214002A543B6835F8142008490092012022460134C8
S214002A640CF0F6F8292CF0D103B0F0BD841D00203C
S214002A742C1E0020A4400020AC1B030008B5FFF762
S214002A84DFFFBDE8084000F0F1B8000007B50020FD
S214002A94FEF75AF9C2B2282A0DD8084B53F822304A
S214002AA40BB9074B1B680749012031F81210009137
S214002AB405490CF0CDF803B05DF804FB841D002036
S214002AC42C1E0020A4400020AC1B0300FFF7B8BF58
S214002AD47047000038B50020FEF736F9044601209A
S214002AE4FEF732F90546054901200CF0B1F8A9B203
S214002AF4E0B2BDE8384000F0D1B800BFB71B030011
S214002B04F7B50024094E0A4F0A4D56F8243003B987
S214002B143B6835F814200849009201202246013407
S214002B240CF096F8292CF0D103B0F0BD841D0020DB
S214002B342C1E002052400020AC1B030073B502ABD1
S214002B4403E906000446019D1BF02EFB06462046BC
S214002B541BF038FB9DF800008EB1202C0FD82B7884
S214002B64012B37D84FF6FF75394903EB431323443B
S214002B7431F81320AA4202D0013221F813204FF66E
S214002B84FF72344B344933F8146031F814509642CB
S214002B941CBF721C23F8142004F0FD02092A31D14C
S214002BA49A8A898A02448A42B4BF9A82998233F8FE
S214002BB41430AB4204D3AE4202D22046FDF7A1FF46
S214002BC40025264BEA5CA24228D00135112DF9D106
S214002BD402B070BD022BD2D14FF6FF714FF6FF75CF
S214002BE41B4B33F814208A421CBF013223F81420EE
S214002BF404F1210233F81210A9421CBF013123F854
S214002C041210BCE71D2CD2D15A8F1118A942BDBF91
S214002C1402F1FF3212185A875D87C8E717F0D3FC13
S214002C240F4B04461B78834203D8DD210D4800F081
S214002C34FDF94FF6FF710C4A04EB04142C4432F8E9
S214002C4414308B42C4D0013322F81430C0E700BFDE
S214002C54F6400020A440002052400020231F03001A
S214002C64111D00209F1E0300304000205222002128
S214002C740148FEF735BC00BFA44000205222FF21C5
S214002C840148FEF72DBC00BF5240002008B5FFF7F0
S214002C94EDFFBDE80840FFF7F1BF0000014B23F845
S214002CA41010704752400020032310B50F4C4FF409
S214002CB48062C4E904330E4B0E49E3610023A1612C
S214002CC421660D49E01DC4E919120C49A36263622A
S214002CD4E3622367E366636722622DF0B7F9084967
S214002CE420462DF0B3F92023A37110BD7C410020AB
S214002CF419280020341F0300192400203D1F030058
S214002D04411F03002DE9F84F1F4B16461A788146DB
S214002D148A4698460AB9FFF7C7FF182707FB0987AC
S214002D243D6FD7F86CB05D452BD9BC6E796E641BCD
S214002D34B44228BF34462944504622462DF073F93F
S214002D44BB6E2544AB4208BF0025A244361BABEB42
S214002D54050B5E4528BF5E4656B1182303FB098360
S214002D64596E3246294450462DF05DF934443544B4
S214002D7424B1182303FB0988C8F870502046BDE820
S214002D84F88F0024E3E700BF7C41002010B50B4613
S214002D94EFF311844FF0200181F311881946FFF7F1
S214002DA4B1FF84F3118810BD2DE9F84F144D9B46EE
S214002DB42B788146884692460BB9FFF775FFEFF3EA
S214002DC4118C4FF0200181F31188002018236F69BD
S214002DD403FB0054666E2EB101308742F8DC4FF0D8
S214002DE4FF3009E08742FADDC4E91898C4F868A001
S214002DF42667E666C4F874B08CF31188BDE8F88FCD
S214002E047C410020FFF750BF70B54FF060441A4B6A
S214002E1400261A68194D42F001021A60DA680C207E
S214002E2442F08072DA60164BC4F8B03F0223C4F84E
S214002E34006EC4F8806EC5F8F03003F0ABFA114BA0
S214002E4400F5D52000F2FC40B0FBF3F00E4A0F4B21
S214002E5401382861C4F8406E1A600D4BC4F8803EF1
S214002E644FF48073C5F80433D4F8003E43F48073FB
S214002E74C4F8003E70BD00BFF0ED00E0000004E0C2
S214002E8455CEACC5F8590D00FF030040001000E015
S214002E940D00010010B501240E4B00201C6003F049
S214002EA405FE234604220321002003F047FE2046A5
S214002EB40FF056F8FFF7A8FF0FF053F8FFF7A2FF3E
S214002EC42346402204490548FFF76EFF044B18606A
S214002ED4C00F10BD44D40340192C0020481F030023
S214002EE4301E0020024B1868003018BF01207047BF
S214002EF4F0ED00E0D123054A037013784170090A07
S214002F048170591CC370117004207047592C00201E
S214002F142DE9F74F354E074633681C5C032C63D9FE
S214002F24DFF8CC8016F07CFF4FF6FF7A0025C1460A
S214002F340534E4B20190D8F800204AB1AC4207D96F
S214002F4416F06EFF019BC01A80B2B0F5FA7F05D961
S214002F54601B18BF012003B0BDE8F08F002D3DD0E4
S214002F64012D1DD14FF0020B3268D55D4FF0604243
S214002F74D2F8801ECB0711D51146D9F80C0040F0C4
S214002F848070C9F80C00D1F8000E40F48070C1F8C7
S214002F94000E086A0028F0D082F820505D46CAE782
S214002FA4E21E05F1010B95425FFA8BFB02D15FFA34
S214002FB48AF5DBE7A21E954202D1CAF30725D5E7B8
S214002FC4621E95420ED0A91EC9B238461CF02AF8D5
S214002FD451460546FEF798F98246C7E75B254FF04B
S214002FE4010BC3E75D25C1E70120B4E7C81C002038
S214002FF4F0ED00E010B50B4B90B04022694618681F
S214003004FFF7C4FE58B1C1B268461BF095FF0446EC
S214003014014612200EF050FC20461BF02FFE10B086
S21400302410BD00BF301E002042DE704738B504468F
S2140030340D4600F001FD03F094FC294620460EF0F0
S21400304407FC2B4622460549012007F011FE2946B7
S2140030542046BDE83840FFF7E7BF00BF581F03000F
S2140030646D4B2DE9F0415A686C4CA2655A6AE265CC
S2140030746B4AD2F800122166D2F8042262669A6A73
S214003084A266DA6AE2661A6B22675A6B6267A26BFA
S214003094DB6B12F0040FA367D4E90F5318BF1D4669
S2140030A416F0A2FE002285420346606522655DD3C3
S2140030B45C4A95425AD8AA696264E969A164B4F87C
S2140030C45810C1F30801062954D157498A4251D3EE
S2140030D456498A424ED211884DF64262914249D1EF
S2140030E440F201706268C4F89420A268C4F898207C
S2140030F44F4A5049934238BF13460A468B423CD344
S214003104D31AE3640023C4E91F33C4E92133C4E9B2
S2140031142333484E444FDFF814C1AE4233D8D4E9C3
S2140031241FC7D4E92165D4E923124FF0000E013BF2
S214003134DBB2FF2B42D1BEF1000F05D0C4E91FC796
S214003144C4E92165C4E92312B4F85830C3F308036C
S214003154052B57D03CD8032B47D0042B58D040F629
S2140031640722013B4B2B98BF104640E000221D4629
S214003174C4E911224FF42060BAE71E68B6F1CD3FC9
S214003184BED10433BAE756F8042DBA42C5D3624515
S214003194C3D2D107C1D5002104EB010EDEF87CE0D2
S2140031A49645BAD004311829F6D10BB9052301E0A7
S2140031B4013BDBB204EB8301CA67AEE7E0464FF09F
S2140031C4010EBC4637462E460D4611464246AEE72D
S2140031D40C2B1AD03B2B0CD0062BC0D140F6042364
S2140031E4B0F5206F08BF184601E040F60120BDE8A0
S2140031F4F081114B9B6913F0020F40F2025318BF83
S2140032041846F4E740F60320F1E740F60520EEE71B
S21400321440F60220EBE700BF00ED00E000000020CF
S21400322400E100E0A01A00204C0300008800030020
S2140032349C000020C01A00200080014A10B503F04C
S214003244AFFD044603F0A4FD0022012101FA02F3B7
S214003254234014D01B4B33F812301B4A062B13D0D2
S21400326440F207218B420DD1184919480C68844254
S21400327408D14CF23C334B800B88138012E00132A9
S214003284102AE3D1104AF8E74FF20F010F4B588883
S214003294884214D11988B1F5406F10D211804CF2CF
S2140032A43C325A80084B1A8840F201739A4201BF96
S2140032B4084B094AD2E90001C3E9000110BD4FF4E6
S2140032C4C061EBE76C1F0300642C002000000020A4
S2140032D407020FF05C2C002094000020014B188895
S2140032E4000A7047642C0020014B1888704700BF02
S2140032F4642C00202DE9F04F4D4C0546A36BD4F802
S21400330450B05A0747BF0027B846D4F84CB0D4F894
S2140033145480D4F840A05DBF464FD4F83CA0DFF8F4
S2140033243C91DFF83C9113F0080F434B434A18BF17
S2140033341A46B7EB08061FBF6421730801FB0B335C
S214003344B3FBF6F387B01CBF9BB205933C494B46D0
S214003354CDE9017ACDF8008008BF059601F0BEF8E5
S214003364B3B2CDE900931FFA8BF2059B3549284684
S21400337401F0B4F8A36B5B070AD49C3E5E4507D104
S214003384626D314B9A4203D23049284601F0A6F8C2
S214003394BA4501D8C24504D24A462D49284601F00A
S2140033A49DF8284607F05EFC236E0BB9636EBBB32C
S2140033B42849284601F07DF800260127DFF8A48076
S2140033C4DFF8A490226E07FA06F3134207D058F8E3
S2140033D4262013781BB14946284601F06AF80136C0
S2140033E4202EEFD100260127DFF87880DFF87890CA
S2140033F4626E07FA06F3134209D008EB8603D3F885
S214003404802013781BB14946284601F052F801364D
S2140034141D2EEDD1284607B0BDE8F04F01F058B890
S21400342428460D4907B0BDE8F04F01F057B800BF75
S21400343400000020C01A0020732203007A22030032
S21400344482220300B02203009C000020E92203002D
S2140034541523030033230300622303006E220300B4
S214003464693B030078230300304D03002DE9F8433D
S2140034740446FFF739FF40F60123984239D010D8A6
S21400348440F2025398421DD040F20173984224D071
S21400349440F20153984213D16549204601F01EF8C4
S2140034A422E040F6032398426CD03DD340F6042332
S2140034B4984200F09C8040F60523984200F0B580C0
S2140034C4BDE8F8835B49204601F008F85A4B5B498F
S2140034D45A6C204601F002F806E0574A5849D2E9E9
S2140034E42523204600F0FAFF2046BDE8F84307F0FF
S2140034F4B9BB514D5349204600F0F0FF95F86C30A7
S2140035049F0703D55049204600F0E8FF95F86F3032
S2140035145E0603D54D49204600F0E0FF95F96F306E
S214003524002BE1DA4A49B8E7434D4A49204600F001
S214003534D5FF95F86830980704D06A6C3F49204652
S21400354400F0CCFF95F96830002B04DA6A6F424924
S214003554204600F0C3FF00260127DFF80881DFF8C5
S2140035641491AA6E07FA06F3134207D058F82620D9
S21400357413781BB14946204600F0B0FF0136082EEA
S214003584EFD1B1E72C4D3549204600F0A7FF2B4973
S2140035946A6C204600F0A2FF95F86930590703D5F7
S2140035A42F49204600F09AFF95F96930002B04DA7B
S2140035B46A6F2949204600F091FF0826294FDFF854
S2140035C4B480AB6EF340DA0707D557F82620137895
S2140035D41BB14146204600F081FF0136102EF0D183
S2140035E495F86830002B7FF47FAF1F4955E7124DDE
S2140035F41E49204600F072FF6A6C1049204600F00F
S2140036046DFF1026174FDFF86C80AB6EF340DB07B8
S21400361407D557F8262013781BB14146204600F0FC
S2140036245DFF01361A2EF0D15EE711494BE700BF65
S214003634FD1F03003A200300000000206A20030058
S214003644832003009D200300B5200300EF20030021
S214003654222103005E21030083210300A721030027
S214003664BE2103008C1F030004220300342203003F
S2140036744D2203009F2103002DE9F84F064600253E
S214003684154C164FDFF85C80DFF85CA023785FFAF1
S21400369485FB0BB9BDE8F88F57F8043B2246104962
S2140036A4304600F006FF227804F1010982B96278F8
S2140036B482B10BF0030103290CBF41465146304644
S2140036C400F0F7FE304607F0CDFA01354C46DDE74C
S2140036D44C46E8E74146F2E76C2403000400002069
S2140036E4F41F03003E0103007E3F030000F00CB805
S2140036F400F00AB800F008B800F006B800F004B805
S21400370400F002B800F000B872B61EF0080F09D038
S2140037141EF0040F0DD0DFF850E0AEE8FF1F6FF088
S21400372402000CE0DFF840E0AEE8FF1F6FF00E008A
S21400373405E0DFF834E0AEE8FF1F6FF006006946E8
S214003744EFF309828EE8070086460848084C85454C
S21400375401D3A54501D384F30888FFF781FC84F3DD
S214003764088816F01DFB000004000020A0110020AD
S214003774C01A0020FFF7C6BF7047704770477047EF
S21400378400F07E63B3F17E6F70B505460E461446B0
S21400379416D105F0B7F818B19A210D48FFF746FC84
S2140037A422463146C5F30B0003F0B6FB044605F08B
S2140037B4B5F85CB19D21BDE870400548FFF736BCFE
S2140037C4520816F08BFA08B18F21F4E770BD00BFDB
S2140037D4902B030037B57F2A14BF154600254BF2FD
S2140037E434629142044619D17F2241F202016846AE
S2140037F40823FFF7EFFF082225496846FDF777FE02
S21400380430B908237F2241F2F0116846FFF7E2FF41
S214003814082269462046FDF707FE09E041F2F01249
S21400382491421AD11B4901388A6CC96C1D1F0BB909
S21400383403B030BD013B9D4200F8012F4FEA12222F
S214003844F5D1002203349A42F2D00132042A04F855
S214003854011F4FEA1121F6D1EAE701F47042B2F5EE
S214003864805F07D1C1F30B0404F17E649AB203FBB4
S2140038740541D0E701F46042B2F5005FD8D1C1F348
S2140038840B0405499AB2214403FB0511C3E700BFA4
S2140038940A2C03000080E00F00E0070070B5054620
S2140038A416461C46DBB14BF23463994210D1082C01
S2140038B428BF08247F2241F202012346FFF78AFF2D
S2140038C4A2B207492846FDF712FE40B941F2F011AC
S2140038D4234632462846BDE87040FFF77BBF70BDDE
S2140038E40A2C03002DE9F7430446E0070F46154665
S2140038F403D5DD213448FFF799FBE90703D5DE211C
S2140039043148FFF793FB04F47043B3F5805F3ED170
S214003914C4F30B0404F17E646B1E2C4A23449342C6
S214003924264603D9E3212848FFF780FBDFF8989062
S21400393406EB050846453DD1A2070ED04FF6FF73A9
S21400394437F8022B02A943EA0243A01E41F8043DBD
S2140039540422FFF715FF0234023DAB070ED0023DEA
S21400396425F00103FB5A02A96FEA03436FEA1343E7
S214003974042241F8043D6019FFF702FF25B12A46E8
S21400398439462046FFF7FCFE03B0BDE8F08304F496
S2140039946043B3F5005F05D10D4BC4F30B041C4420
S2140039A42646C3E7EA210848FFF740FB6FF00F06F8
S2140039B40024BBE716F8013BFF2BBBD0F421484696
S2140039C4FFF734FBB6E700BF902B0300FF1FE00FA2
S2140039D400E00700FFF78ABE1FB5144A01AB106863
S2140039E45168128903C31A8001238DF804300D230D
S2140039F48DF80A3003230E4C082123208DF80B3053
S214003A0402F006FE01A9204603F0BDFC4FF4006157
S214003A14022342F21800074AC2F884112350516068
S214003A2441F21C02A35004B010BD00BF122C0300C8
S214003A340080014A00E100E0014803F093BC00BFA7
S214003A440080014AA52803D10021024803F07BBC6C
S214003A54704700BF0080014A024B586800F001001E
S214003A64704700BF0080014A024A536A002BFCD10B
S214003A74704700BF0080014A00207047002070474E
S214003A847047000007B572B602F06BFF894B8A498F
S214003A945B6940228B6000230B764B768B76F02393
S214003AA4CB760B774B778B77CA77802281F82020EA
S214003AB481F82130E023602081F822307F4B81F8A2
S214003AC4232083F8002383F8012383F8022383F852
S214003AD4032383F8042383F8052383F8062383F853
S214003AE4072383F8082383F8092383F80A2383F833
S214003AF40B2383F80C2383F80D2383F80E2383F813
S214003B040F2383F8102383F8112383F8122383F8F2
S214003B14132383F8142383F8152383F8162383F8D2
S214003B24172383F8182383F8192383F81A2383F8B2
S214003B341B2383F81C2383F81D2383F81E2383F892
S214003B441F2383F8202383F82103202083F82223CD
S214003B5483F8232383F8242383F8252383F8262352
S214003B6483F8272383F8282383F8292383F82A2332
S214003B7483F82B0383F82C0383F82D2383F82E2352
S214003B8483F82F2383F8302383F8312383F83223F2
S214003B9483F8332383F8342383F8352383F83623D2
S214003BA483F8372383F8382383F8392383F83A23B2
S214003BB483F83B2383F83C23CB6823F4E0631B049D
S214003BC41B0C43F0BF6343F40133CB604B6943F0F3
S214003BD410034B614FF4E0234B6203F0C9FFFFF779
S214003BE42DFBEFF308834FF0CD31354A043B934267
S214003BF45DD2344A002192B23348FDF771FC62B6B6
S214003C04684603F0B1F9314B9B6DDB0318D4304A98
S214003C14136823F4FF0323F4FE4343F4BC1343F472
S214003C24A063136052F8043C23F4704343F4404307
S214003C3442F8043C52F8043C43F4E06342F8043C83
S214003C449DF80130012B0FD19DF8003063B94FF079
S214003C5400531B681F4B1B681F4B1B681F4B1B68BE
S214003C641F4B1B681F4B1B681F4AD2F8803043F05B
S214003C740303C2F8803002224FF040231A6703F091
S214003C84F1FE01F0E5FA002300938DF804300123D9
S214003C9468468DF8033002F000FF00F027F916F0AE
S214003CA4D1F812480EF066F903B05DF804FB19600B
S214003CB4043B9CE75400000000ED00E000E100E057
S214003CC4601100208C100000A000002000C00040FE
S214003CD434C00040004000200080002000C00020C7
S214003CE400000120004001200080004064550300CD
S214003CF440F2016016F054B8FEF7A0BE08B50021E5
S214003D040B20FEF799FEBDE80840FEF798BE032098
S214003D1400F078BA08B5FFF7E1FA044B0B289ABF0F
S214003D2400B203EB8000184608BD00BF622D0300F6
S214003D3408B5FFF7D9FA044BC0F30F2253F8223024
S214003D44C0B203EB800008BD2C2D030010B5FFF7AE
S214003D54C5FA0446FFF7C8FAC0B228B9012C24D124
S214003D6464F07F04E4B216E0072CF9D801A353F8F4
S214003D7424F000BF9B3D0000653D0000993D000017
S214003D849F3D00009F3D0000A33D0000A73D0000AE
S214003D94AB3D00000924204610BD0224FBE70324A3
S214003DA4F9E70B24F7E70624F5E70446F3E700BF34
S214003DB407282DE9F84F04460F462DD0082808BFDB
S214003DC4022421460120FCF7E0FEFFF745FE651EAF
S214003DD4D5F1000848EB050800B3012C1ED1A52038
S214003DE4FFF730FE2646EFF31089012383F310888D
S214003DF4EFF3118A4FF0000B8BF31188354D4046D4
S214003E0407F09EF9631EC5F800B0042B59D8DFE806
S214003E1403F00E4D4D5155000324D2E7FFF71CFE68
S214003E2418B1FFF721FE0026DDE70646DBE72A4A3F
S214003E34136923F00403136130BF284AD2F82434EC
S214003E44D2F8202413409BB2254A2B60D2F80011E6
S214003E54480102D51168490106D4D2F80011880138
S214003E6405D51268910102D543F480332B601C4BB0
S214003E74D3F80021520506D51B685B0542BF2B68A4
S214003E8443F400332B601EB10121164803F05BFA9D
S214003E94404607F075F9CFB18AF3118889F3108884
S214003EA42146BDE8F84F0020FCF76FBE012002F063
S214003EB4C7FDC2E7012002F0D7FDBEE702F0D6FD3B
S214003EC4BBE783210848FFF7B1F8B6E787F3108805
S214003ED4E6E700BF702C002000ED00E000C00340C1
S214003EE400E100E00080014A922D030042F22041E6
S214003EF4044AD2F820341B0C1B045350024A1360A5
S214003F04704700BF00C003406C2C00200021FFF760
S214003F144FBFFFF7FBBF00002DE9F04F89B00EF04E
S214003F241DF80746002840F0DD806F4E6F4D31685F
S214003F34286815F01FF90446002827D033683C4645
S214003F44D3E900019A6912689047336804A89B690C
S214003F549B689847336802209B69DB6898473268F9
S214003F6405985368E7B2B3FBF0F3BB42916904F1DA
S214003F74010442D8CB680020984733689B695B6885
S214003F8498473168286815F0F5F804460026DFF8E7
S214003F948891002C53D1564B4FEA8608F35C002BCD
S214003FA431D1A246534BF35C0193534B03EB080BFE
S214003FB4019B5FFA8AF7BB42286853D84F4BF35CE1
S214003FC4002B3CD04C4B019F9844FBB27E2B2868B8
S214003FD435D8D8F8003003AA07EB030A514602ABDB
S214003FE415F002FB48452AD05146286815F042FBD6
S214003FF4013704460028E8D021E012680B6907FB65
S21400400400209847ABE73C4B03AA53F82670286871
S21400401402AB394615F0E8FA484507D078B9039B51
S214004024012B0CD03946286815F024FB344B39464E
S21400403453F8083028681A6815F000FA0446013662
S214004044292EA6D1B4FA84F32E4A5B0913702E4B9C
S2140040549C4241D02DD8002C32D0013B9C423FD00C
S214004064C5242DE0DBF8003003AA1F44394602AB12
S21400407415F0BAFA48450AD010B10AF1010A97E7D2
S214004084039B8BB9214B029AF35C9A42F5D01F4BE3
S2140040941B4A9B5D52F808203946286815F040F9FB
S2140040A40028EAD0044689E73946286815F0E2FA7B
S2140040B4EDE7174B9C4211D004339C42D0D1C12467
S2140040C42B681B7C23B14FF489711248FEF7AEFFB0
S2140040D4204609B0BDE8F08FC324F1E7C424EFE717
S2140040E4C224EDE7C624F3E77C1E0020781E0020D9
S2140040F484070300B4060300D8070300AD070300D3
S214004104E0060300742C002002E000F07C080300A4
S21400411404E000F00E2E03000BE000F0282970B532
S21400412406460C4615461AD8144A127822B3144A80
S2140041341068144A52F82110134A125D3AB13246F6
S21400414415F0CAF9C0B1BDE87040FDF7ECB87F2D94
S21400415408BF00253246294415F02CF9F2E7FF295A
S21400416403D9BDE87040FFF799BB40F24511BDE89E
S21400417470400648FEF75ABF70BD00BF742C00207E
S214004184781E0020D8070300840703000E2E0300C1
S2140041942828F8B504460D46164619D81449097851
S2140041A429B31449144F0868144951F824103C5D87
S2140041B43CB1126815F042F9C8B1BDE8F840FDF705
S2140041C4B2B87F2D08BF0025294415F0A9F8F3E7F7
S2140041D4FF2805D91A463146BDE8F840FFF782BBEA
S2140041E44FF4BC71BDE8F8400548FEF71FBFF8BDA4
S2140041F4742C0020781E002084070300D8070300D0
S2140042040E2E030008B5084B1B7863B1074B00223B
S21400421453F82010064B186815F09EF918B1BDE83F
S2140042240840FDF780B808BD742C0020D8070300AA
S214004234781E002070B5164685180AB9304470BD3D
S21400424401F00F030A2B34BF30243724013A2344E9
S214004254090905F8013DD2B2EFE70000F0B5F9B15F
S21400426400281CDA2D23B0F1004F137000D0404212
S214004274012115E0801B8642ECB205F10105F9D94F
S21400428404B927B101274D1C30345454E9B2013324
S214004294092B09D1303050540131C8B2F0BD002189
S2140042A400231F46DFF808C05CF823600025E2E719
S2140042B4842E03002DE9F04F4FF0000B95B002ACAE
S2140042C481468A4617461D465E46A0463B7863B935
S2140042D402ABE41AE4B2224619465046C847002800
S2140042E440F093803444E0B290E0252B13D0BBF129
S2140042F4000F14D12370013412AB9C426DD3A4EB8F
S2140043040804E4B2224641465046C84700287CD1F9
S2140043142644F6B260E0BBF1000F00D101373B78CB
S214004324632B00F092801BD8392B09D8302B80F0F1
S2140043349E80002BCCD0252B51D04FF0000BDBE712
S214004344582B00F08B80622BF7D14FF0000B2B68B4
S21400435401936B680093009B9B4543D10835ECE7BB
S214004364702B1ED017D8642B01D06C2BE5D16C2B88
S21400437405F1040B28686CD17B78752B14BF0121DA
S214004384002101D0642B00D101372246FFF766FFD7
S21400439404445D46D1E7752BE9D0782B5ED0732BA9
S2140043A4CBD1A4EB0804E4B2224602A9504605F198
S2140043B4040B2D68C84740BB2644F6B2C4B22B5D36
S2140043C40130002BFAD1224629465046C847E0B9A8
S2140043D45D4683462644F6B24446013776E72370A4
S2140043E40134AAE7019B204613F80B100222FFF7BC
S2140043F421FF12AB984204460ED3A0EB0804E4B2A5
S214004404224641465046C84718B1002015B0BDE8BC
S214004414F08F26444446F6B2009B013B5B4582BFC0
S21400442420232370013412AB9C420BD3A4EB080464
S214004434E4B2224641465046C8470028E5D1264401
S2140044444446F6B20BF1010B85E72B68043523705E
S214004454C6E7752B0CBF0021012196E720460222F1
S2140044642978FFF7E7FE05F1040B044691E77A780E
S21400447402F0DF02582A19D1322B07F1010B09D1B9
S2140044840422204629882F1DFFF7D4FE3D46044605
S2140044945F4652E7342B09D12F1D2D680422290CC0
S2140044A42046FFF7C7FE0422A9B2EDE74FF0010B42
S2140044B422E70EB403B503AA52F8041B019206F0D1
S2140044C4F5FEC0B202B05DF804EB03B0704700001E
S2140044D40149FFF7EEBF00BF3E0103000EB433B53B
S2140044E405AA52F8041B0546019206F0DFFE0446B0
S2140044F42846FFF7EDFFE0B202B0BDE8304003B057
S214004504704708B506F0D2FEC0B208BD2DE9F04FDC
S2140045149B46584B85B01B78064689461546109F21
S2140045249DF844A0DDF85080002B00F09280072A06
S21400453400F291800E9B002B00F08D800F9B002BC9
S21400454400F08980129BB3F5006F00F38480012885
S21400455401D1002F7FD0484B03EB05131B7B002BA8
S2140045647BD0464C1022002168462BF067FD04EBF6
S21400457445141022B9F1000F5CD1494620462BF0B1
S2140045845DFDA37843F01003A370E37843F0300393
S214004594E370BAF1000F03D1DBB243F00303E37018
S2140045A436496A01129B885A013B63F30E100E9B30
S2140045B401EB020C8852CCF808300F9B9DF84C1087
S2140045C4CCF804309CF80330012E61F38303CDF855
S2140045D400B08CF8033042D113230CF1100ECCF843
S2140045E40C309CE80F008EE80F006FF00301DCF837
S2140045F41C20B9F1010F61F39F02CCF81C20CCF803
S214004604147004D10F9BCCF80470CCF81830002733
S21400461419492A018B1841F80280159A28465A60CF
S2140046249F605E732246694602F018FB384605B062
S214004634BDE8F08F002120462BF000FD1023A37068
S2140046440323E370BAF1000FAAD1DBB243F03003C0
S214004654A5E70B48EBE70B48E9E70B48E7E7B8F1B3
S214004664000FD4D19CF8023068F304138CF802309F
S214004674CDE700BFF82D0020782C0020F82C002071
S214004684028000F0018000F0078000F038B5104B7F
S21400469405461B78BBB1C0B102F06BF900230D4987
S2140046A401EB0312147B3CB92B60012314601373D3
S2140046B402F065F9204638BD0133082BF0D102F02C
S2140046C45EF90548F7E70548F5E70548F3E700BF50
S2140046D4F82D0020782C0020048000F0028000F0E2
S2140046E4018000F038B502F044F9002305460A4A72
S2140046F4D1180C7B5CB91033802BF9D102F060FA28
S214004704064B28461C7002F03AF9204638BD284667
S21400471402F035F90248F9E7782C0020F82D00203D
S214004724058000F00D4B10B51B78044693B107289E
S21400473412D802F01EF90A4B03EB04131A7B2AB1B3
S21400474400241C7302F01BF9204610BD02F017F972
S2140047540448FAE70448F8E70448F6E7F82D00208A
S214004764782C0020068000F0028000F0018000F023
S214004774164B13B51868002301908DF8043002F028
S214004784F8F8134B1C7824B102F0F9F8114802B07B
S21400479410BD01221A7002F0F2F80F4B1C731C773E
S2140047A483F82C4083F83C4083F84C4083F85C4004
S2140047B483F86C4083F87C4004230DEB03008DF8EB
S2140047C4073002F021FA2046E1E700BFA82E0300D6
S2140047D4F82D0020038000F0782C002010B588B057
S2140047E40E9C009207940D9C024606949DF8304059
S2140047F405940B9C04949DF8284003940024CDE96A
S214004804013420460B462146FFF780FE08B010BD53
S21400481410B588B00E9C009207940D9C0246069430
S2140048249DF8304005940B9C04949DF8284003940E
S2140048340024CDE9013420460B460121FFF766FE2D
S21400484408B010BD08B50A4B1B785BB107280BD817
S214004854084B03EB00131B7B43B1002102F0C4F9A1
S214004864002008BD0448FCE70448FAE70448F8E7D3
S214004874F82D0020782C0020028000F0018000F043
S214004884078000F008B50A4B1B785BB107280BD8E5
S214004894084B03EB00131B7B43B1012102F0A4F980
S2140048A4002008BD0448FCE70448FAE70448F8E793
S2140048B4F82D0020782C0020028000F0018000F003
S2140048C4078000F008B50A4B1B7853B107280AD8AE
S2140048D4084B03EB00131B7B3BB102F00FFA0020DE
S2140048E408BD0548FCE70548FAE70548F8E700BFB1
S2140048F4F82D0020782C0020028000F0018000F0C3
S214004904078000F00D4B1B7893B1072812D889B1A5
S2140049140B4B03EB00131B7B73B10A4BDA6A0123C0
S21400492403FA00F010401ABF00200B70087070479E
S214004934054870470548704705487047F82D00201D
S214004944782C002000000440028000F0018000F073
S214004954078000F00B4B10B51B780C4663B1072894
S2140049640CD859B1084B03EB00131B7B43B102F080
S214004974D7F92060002010BD0448FCE70448FAE795
S2140049840448F8E7F82D0020782C0020028000F078
S214004994018000F0078000F02DE9F843174B1F6DE7
S2140049A45B6D1F4000D5FEE701260025144CDFF89A
S2140049B45480DFF85490374217D02368C8F8006054
S2140049C49BB1A16862680131A16028469847637B61
S2140049D4012B0AD148B909EB4513197B1A7F60F3FA
S2140049E4410160F3410219731A770135082D4FEA25
S2140049F4460604F11004DED1BDE8F8830000044046
S214004A04782C002050200440F82C002070B5044672
S214004A140125084E04B970BD94FAA4F0B0FA80F0EB
S214004A2405FA00F324EA030456F82030002BF1D0EC
S214004A349847EFE7FC2D00204FF00072044BC3F8B4
S214004A4480211A604FF08062C3F880211A60704794
S214004A5400E100E038B504460D4601F08AFF034B3A
S214004A6443F82450BDE8384001F089BFFC2D0020EF
S214004A74084BD3F82404D3F82024104042F22042F2
S214004A8420F42A5020F02A004004400C9850FFF7E7
S214004A94BDBF00BF00C00340084BD3F82404D3F8BE
S214004AA42024104042F2204220F4AA4020F0550070
S214004AB40004000C9850FFF7A9BF00BF00C00340D5
S214004AC4104A30B5136841611546ABB9106083606F
S214004AD411E0091B9C6841611A467CB123465C6957
S214004AE48C42F6D9002CF4D052B19060836013B196
S214004AF45A69511A596130BD0022F0E72346F4E79B
S214004B042860F3E7502E002010B500F0B1FA094BE8
S214004B14094A196831B11368C41A4B69A34203D30E
S214004B241B1B4B61106003E0C01A002310604B612E
S214004B3410BD00BF502E0020402E0020074B10B59D
S214004B441B6802205C69064B1B681C4400F0C4FA10
S214004B542046BDE8104000F093BA00BF502E002057
S214004B64402E002070B59DF8145016460571002599
S214004B74049A8560BDF818500446C5800260C0E9F2
S214004B8403360D4629B961610BB11146984796B1B3
S214004B94354601F0EEFE0646FFF7B6FF29462046E8
S214004BA4FFF78EFF054B1B68A34201D1FFF7C6FF34
S214004BB4304601F0E4FE002070BD00BF502E0020F9
S214004BC400210C4A13687BB183420AD1836879B109
S214004BD48B6083681BB15A6941690A445A61002094
S214004BE4704719469B68EEE70028EFD0022070470E
S214004BF41360EEE7502E002070B501F0BAFE114D9A
S214004C0406462C78CCB9104B1C60104B1C60104B1D
S214004C141C8000F0F3F9012000F05EFA00F0AAFA16
S214004C240C4B0246186040F2E73123460A482BF044
S214004C3429F80A4B186001232B70304601F09FFEBA
S214004C44002070BD3C2E0020502E0020402E002058
S214004C54482E00204C2E002018FCFFFF442E002077
S214004C642DE9F0410546F8B101F083FE0F4F0646E4
S214004C74FFF74AFF2846D7F80080FFF7A1FF04464F
S214004C8428B1304601F07BFE2046BDE8F081A845F9
S214004C943B6803D123B1FFF751FFF2E7002BF0D1B5
S214004CA4022000F025FAECE72224EDE7502E00203F
S214004CB4F0B50D4685B016461F46044680B1FFF78C
S214004CC4CFFFBDF82C30002202939DF828302946E9
S214004CD4CDE9007320463346FFF744FF05B0F0BD28
S214004CE42220FBE738B50C46054698B191B100235F
S214004CF40B7001F03EFE0121074B1B680BB12278B6
S214004D041AB101F03CFE002038BD9D420CBF217054
S214004D149B68F3E72220F7E7502E0020F0B51F46E5
S214004D24002387B00D4616468DF817300446A0B10A
S214004D340DF11701FFF7D6FF9DF817207AB9BDF8D5
S214004D443430294602939DF830302046CDE900736E
S214004D543346FFF707FF07B0F0BD2220FBE703202A
S214004D64F9E70000F8B50C460646C8B1C1B101F033
S214004D7400FE0546FFF7C8FE73692360134B1B68E5
S214004D84B3420FD023B9284601F0F9FD03201CE0F6
S214004D94596922689B680A442260F1E700230FE001
S214004DA4222012E0276800F063F9094E3368C01A1F
S214004DB48742F3D900F05CF93368C01A23681B1ADB
S214004DC42846236001F0DBFD0020F8BD502E0020AD
S214004DD4402E002070B501F0CCFD064600F048F9E0
S214004DE4094B05461C880120A4B200F099F918B1B5
S214004DF400F03EF905460134304601F0C0FD0022BD
S214004E04214642EA050070BD482E00200A4B10B524
S214004E141B680C4683420CD3084B4FF47A7219680D
S214004E240023A0FB01012AF02DFF013020600020A2
S214004E3410BD2120FCE700BF442E00204C2E00208D
S214004E44104B10B51A684FF47A73A0FB0301A2B195
S214004E54531E134211D1B2FA82F2C2F11F02C2F1FA
S214004E642004A2F1200301FA04F420FA02F22243F9
S214004E7421FA03F342EA030010BD00232AF002FFDE
S214004E84FAE700BF4C2E002000000000F8B51646D6
S214004E941BA3D3E900238B4208BF82422AD3174BB5
S214004EA41A684FF47A73A0FB034503FB0155C2B19D
S214004EB4531E13EA020014D1B2FA82F2C2F11F02A0
S214004EC4C2F12007A2F1200124FA02F305FA07F73B
S214004ED43B4325FA01F10B4325FA02F2C6E90032F8
S214004EE4F8BD0023204629462AF0CCFEC6E9000178
S214004EF40020F5E72120F3E7AFF300804C2E0020D6
S214004F04EFA7C64B37894100C2072DE9F84F044680
S214004F140BD5374A138801339BB21380FFF7F4FD91
S214004F24344B1B680BB1FFF709FEA3075DD500F0F1
S214004F349FF8314E074635684FF0000A451B01F0CE
S214004F4418FD8046DFF8AC90D9F80040002C48D015
S214004F546369AB4209D95D1B65613760FFF7EEFDF7
S214004F644046BDE8F84F01F00ABD23462A4637609E
S214004F745969914209D8187994F804C0521A84459C
S214004F8488BF1C469B68002BF2D1404601F0F7FC14
S214004F94D4F81480C4F814A001F0EBFC8346204631
S214004FA4FFF70EFE584601F0EAFC23694BB101F008
S214004FB4E0FC834621692046FFF782FD584601F04F
S214004FC4DEFCE36813B121682046984700F050F8E9
S214004FD44744ED1B0446054401F0CBFC27468046B7
S214004FE4B2E7022000F084F8BAE7BDE8F88F00BF05
S214004FF4482E0020502E0020402E00201FB50024EE
S214005004184B18689A88029053F8060FADF80C20CF
S2140050141B79009002A88DF804308DF808408DF8AE
S2140050240C4001F007FF694601208DF8004001F0AE
S214005034C5FE4FF090431F219A6922F01F029A6121
S214005044094A11609A6A12F00802FBD11A6201201A
S21400505401F0CEFE4FF48062044BC3F880211A6040
S21400506404B010BDAC2E03001420004800E100E09C
S2140050744FF090439A6A1207FCD4186A70470000EF
S2140050844FF09042936A1907FCD4136A116C526964
S214005094120704D4CA1A022A01D899420ED1C21A97
S2140050A4012A98BF981CB0F1FF3F28BF01304FF08B
S2140050B4904318649A6942F008029A61054A137884
S2140050C43BB14FF09041CB6B43F00203CB6300231C
S2140050D413707047381E002082074FF0904200F08D
S2140050E40103916948BF43F008030B43936170477B
S2140050F4830700F001020AD50121084B42F008029A
S21400510419704FF09041CB6B23F00303CB634FF041
S21400511490418B6923EA02038B617047381E002096
S2140051244FF0904301285B6904D0022805D1C3F3ED
S214005134C000704703F0010070470020704700006D
S21400514410B501F016FC4FF0904304465B691A074D
S214005154074A03F0010003F00D0348BF40F00200C5
S2140051641360FFF7D1FE2046BDE8104001F007BCEF
S214005174142000481B2001F00DB90000002211463F
S2140051842D48F0B503682D4D54592CB11E68AC1843
S214005194002E3DD1234601210832282AF4D101B13C
S2140051A40360002214462649264E0B6895592DB1F5
S2140051B41F68B518002F32D12B4601240832282A3E
S2140051C4F4D104B10B6000680368002B2FD04FF0B5
S2140051D44022936F007923F0FF7323F4803343EA6D
S2140051E400439367184B4FF0004209681A600B6837
S2140051F4FBB14FF04022936F097923F4FF7323F039
S21400520401030B439367104B4FF080421A60F0BDC6
S2140052141E792779B74284BF23460121BCE71F794C
S21400522495F804C0BC453CBF2B460124C6E7074B93
S214005234D9E7064BE8E700BF582E0020682E00206A
S2140052445C2E0020902E00206850004068600040CD
S21400525410B5012228240F4B00211A700E4822464E
S2140052642AF0ECFE224600210C482AF0E7FE0C4BFE
S2140052740C4A13600C4A13604FF040430B4A136009
S214005284536020220A4BC3F880211A60FFF776FF8A
S214005294002010BD542E0020682E0020902E0020E2
S2140052A4602E0020582E00205C2E002064600040F3
S2140052B400E100E04FF04022D2F88800D2F88830AF
S2140052C4C0F38800C3F388039842F5D16FF488735B
S2140052D4184440B2704700004FF04022936E526E5E
S2140052E410B5134013F0804211D0114B1B681C6894
S2140052F42CB1002119605960FFF7DCFFA0474FF07E
S21400530480420C4B1A60BDE81040FFF737BF002BF5
S214005314F9DA094B1B681C682CB11A605A60FFF74F
S214005324C9FF0121A047034B4FF00042EAE700BF44
S2140053345C2E002064600040582E0020FFF7CCBF8F
S214005344012203685A619A69D207FCD541F2AC522D
S214005354042103795B0103F1804303F5703399500C
S2140053647047000038B141B1013AB2F5006F044805
S21400537438BF00207047034870470148704700BF95
S214005384037000F0027000F038B504460D4601F0D4
S214005394F0FAA28892B222B92A6001F0F0FA06481E
S2140053A438BD1422638802FB034308332B6001F0E4
S2140053B4E6FA0020F4E700BF0B7000F038B50446A8
S2140053C40D4601F0D6FAA3889BB223B92B6001F0F0
S2140053D4D6FA0C4838BD14226388E18802FB0343DE
S2140053E408332B6063885A1C92FBF1F301FB1323EA
S2140053F49BB26380A388013B9BB2A38001F0BFFAF3
S2140054040020E7E70B7000F090F83130022B0BD148
S2140054143022437F90F821005A43044B9B5823FACA
S21400542400F000F0010070470020704714C00340ED
S214005434002313B51C4A52F8234094F821108142E5
S2140054440ED00133042BF6D102B010BD0028FBD1D8
S2140054549DF80730002BF7D0A068FFF7F3F9F3E7C1
S21400546494F83130022BEFD12046FFF7CDFF637E50
S2140054742076022BE8D194F82E3003F0FF02002B9E
S214005484E2D102A901F8012DA068FFF73BFA237EBA
S2140054941BB194F82F30002BD8D00023A06884F8D2
S2140054A42F30FFF7EFF9CFE7B82E0020012230B5F2
S2140054B490F8324087B080F82C207CB9094D0368F8
S2140054C4CDE9024504904C682433CDE900240A68EB
S2140054D44169C068FFF79CF907B030BD002380F827
S2140054E42C30F9E79D5D0000012330B590F832407A
S2140054F487B080F82D307CB9094D0268CDE90245A5
S21400550404904C683C32CDE900340B68016980682D
S214005514FFF764F907B030BD002380F82D30F9E7B3
S21400552429550000F7B5906A01A91446FFF72CFF29
S214005534144B984220D00025019B1D619D6001F00C
S21400554418FA019A0746D66826B1D2E900232946F6
S2140055542046B04701A9A06AFFF730FFA06A8388F7
S2140055649BB263B101A9FFF70FFF01992046FFF72D
S214005574BBFF384601F003FA012003B0F0BD84F8FF
S2140055842D30F6E70B7000F0F8B5044617460D46C6
S21400559401F0EFF9A388E28806469A4205D800236C
S2140055A43B6001F0ECF91648F8BD1422238805F197
S2140055B4100C02FB034308332A4603CA62451860EC
S2140055C45960154603F10803F6D1106814221860D2
S2140055D42388E18802FB034308333B602388304674
S2140055E45A1C92FBF1F301FB13239BB22380A3887E
S2140055F401339BB2A38001F0C2F90020D4E700BFB8
S2140056040A7000F02DE9F3410D460446002800F028
S214005614868001F0AEF9012D064637D1A36A9B8831
S2140056249BB2002B39D0A068FFF74CF90023A06A80
S21400563484F82D3083889BB2002B34D1226893697A
S2140056449B04FCD5023D012D1BD8E068FFF73AF910
S2140056540023606A84F82C3083889BB2002B41D1E7
S21400566494F83130032B0CD042F2AC520421237947
S2140056745B0103F1804303F57033995002222368DB
S2140056845A61304601F07BF9002009E0022D48D12A
S214005694636A9B889BB2002BD4D101F070F926482C
S2140056A402B0BDE8F08101A9FFF76EFE0199A0687B
S2140056B40831FFF74FF9214F019B1F61A06A8388C9
S2140056C49BB2002BBAD001A9FFF778FE019BD3F852
S2140056D40C80B8F1000FF1D09B68002239462046B2
S2140056E4C047EBE76946FFF74FFE0099E0680831CC
S2140056F4FFF730F9114F009B1F61606A83889BB2E5
S214005704002BADD06946FFF759FE009BDD68002DDF
S214005714F3D09B68002239462046A847EDE70848A0
S214005724BEE7032D8ED1A36A9B889BB2002B7FF421
S2140057347AAF636A73E700BF087000F0097000F080
S214005744027000F0036898697047436A9888C0B28C
S21400575470472DE9F341984600230546406A0E46F5
S21400576484881746A4B2CDE900333CB16946FFF7F6
S2140057740BFE01A90446E868FFF7ECF8009969B146
S21400578464B94868019BC01A3860C8F800300B68D2
S21400579433602B68986902B0BDE8F0810021C8F830
S2140057A4001039603160F4E7836A9888C0B27047A5
S2140057B42DE9F341984600230546806A0E46848800
S2140057C41746A4B2CDE900333CB16946FFF7DCFDC9
S2140057D401A90446A868FFF7BDF8009969B164B941
S2140057E44868019BC01A3860C8F800300B683360FC
S2140057F42B68986902B0BDE8F0810021C8F8001053
S21400580439603160F4E7007E70472DE9F0410446C4
S2140058140F469046FFF7A6FD0546002839D1152009
S21400582401F0CCF80646A26A93889BB213B194F8AA
S2140058342E308BB323689E6916F002060ED104221E
S2140058445A619A699207FCD541F2AC521021237929
S2140058545B0103F1804303F570339950012384F808
S214005864303094F8323033B9B8444745206818D1FC
S21400587483699B06FCD566B942F2AC5210212379A3
S2140058845B0103F1804303F57033995008222368C3
S2140058945A612846BDE8F081002EC5D0FFF77CF893
S2140058A4C1E717F8011B01F049FDDEE710B5044611
S2140058B480B190F82E302BB9FFF7A6FD10B9A0687A
S2140058C4FEF7C0FF002094F82E300133DBB284F8D4
S2140058D42E3010BD0048FCE7027000F010B50446F8
S2140058E4A0B190F82E309BB190F82E30012B05D144
S2140058F4FFF78AFD10B9A068FEF7C4FF002094F8ED
S2140059042E30013BDBB284F82E3010BD0148FCE794
S2140059140148FAE7027000F0057000F037B590F819
S21400592431500446022D1ED1012190F82220457ED6
S214005934837F01FA02F23020154925B900FB0313D0
S21400594442F2100105E0012D07D100FB031341F2DA
S21400595410015A50002003B030BD247E00FB031310
S214005964002CF4D1ECE7012DF4D1037E73B9112396
S2140059748DF80730FFF79AFF2A460DF107012046F7
S214005984FFF743FF2046FFF7A9FFE3E71323EFE7FC
S21400599400C00340F0B504468BB09E4F03AE0D46E0
S2140059A40FCF0FC697E8070086E807001CB99A4C85
S2140059B420460BB0F0BD0DB9984CF9E7382200210B
